:020000040800F2
:1000000068320020990100080B0D0008F30B00086E
:10001000090D000829020008910E000800000000E8
:10002000000000000000000000000000110D0008AA
:100030002B020008000000000D0D0008150D00083F
:10004000B3010008B3010008B3010008B3010008C0
:10005000B3010008B3010008B3010008B3010008B0
:10006000B3010008B3010008B3010008B3010008A0
:10007000B3010008B3010008B3010008B301000890
:10008000B3010008B3010008B3010008B301000880
:10009000B3010008B3010008B3010008B301000870
:1000A000B3010008B3010008B3010008B301000860
:1000B000B3010008B3010008B3010008B301000850
:1000C000B3010008B3010008B3010008B301000840
:1000D000B3010008B3010008B3010008B301000830
:1000E000B3010008B3010008B3010008DFF80CD029
:1000F00000F088F8004800470D0F00086832002023
:10010000224B19680868B0E8F00F80F30988BFF344
:100110006F8F4FF0000080F311884EF00D0E704786
:100120000000000006480068006880F3088862B696
:1001300061B6BFF34F8FBFF36F8F00DF00BF00BF0B
:1001400008ED00E0EFF30980BFF36F8F0F4B1A68E3
:1001500020E9F00F106008B54FF0100080F311880F
:10016000BFF34F8FBFF36F8F01F02AFC4FF00000F9
:1001700080F31188BDE8084019680868B0E8F00FFE
:1001800080F30988BFF36F8F704700BF1000002015
:10019000EFF3058070470000064880470648004797
:1001A000FEE7FEE7FEE7FEE7FEE7FEE7FEE7FEE727
:1001B000FEE7FEE7710D0008ED00000840EA0103CC
:1001C0009B0703D009E008C9121F08C0042AFAD20D
:1001D00003E011F8013B00F8013B521EF9D27047D1
:1001E000D2B201E000F8012B491EFBD27047002279
:1001F000F6E710B513460A4604461946FFF7F0FF26
:10020000204610BD064C074D06E0E06840F00103B3
:1002100094E8070098471034AC42F6D3FFF76AFF22
:10022000FC2000081C210008FEE770477047000012
:100230002DE9F84FDFF8B891002409F1040A0AF11A
:10024000040B23460F270BF1040EC9E00125A5403E
:100250002A40AA427DD1674ED1F804C0ACEB060813
:10026000B44532D014DCBCF1030F3AD009DCBCF148
:10027000000F2AD0BCF1010F1CD0BCF1020F31D10C
:100280001DE0BCF1110F17D0BCF1120F2AD119E0FB
:10029000B8F5881F19D006DCB8F5803F15D0B8F541
:1002A000801F1FD111E0B8F5001F0ED0B8F5041F54
:1002B00018D10AE0CB6815E0CB681B1D12E0CB68B3
:1002C00008330FE0CB680C330CE08B682BB1012BAB
:1002D0004FF0080303D0456104E0042302E0056108
:1002E00000E00023FF2A01D8064601E000F10406E1
:1002F0004FEA840501D9A5F12005D6F8008007FA58
:1003000005FC28EA0C0803FA05F548EA0508C6F8D2
:1003100000804D68ED0062D5374DAE6946F00106AC
:10032000AE61AD6924F0030605F001050095334D7B
:1003300006EB050CDCF80850A607360F07FA06F89E
:1003400025EA0805DFF8B880404503D14FF00008E2
:1003500017E044E0DFF8AC80404502D14FF00108DF
:100360000FE0DFF8A480404502D14FF0020808E01A
:10037000DFF89880404502D14FF0030801E04FF0CC
:10038000040808FA06F848EA0508CCF808804D6821
:10039000D9F80060ED034D4601D5164300E09643C1
:1003A0002E604D68DAF80060AD03554601D516435E
:1003B00000E096432E604D68DBF80060ED025D467C
:1003C00001D5164300E096432E604D68DEF80060CC
:1003D000AD02754601D5164300E096432E60641CBD
:1003E0000D682A46E5407FF431AFBDE8F88F000084
:1003F0000004014000001110001002400000014004
:1004000000080140000C01400010014000140140B0
:10041000C26821EA02030A4043EA024101617047CF
:100420000AB1016170470904FBE7000001488068D8
:1004300070470000000000200248816802781144E3
:100440008160704700000020074810B5016841F046
:1004500010010160032000F067F8002000F006F8AA
:1004600000F024F8002010BD0020024070B50D4DB2
:1004700004464FF47A712878B1FBF0F00A49096814
:10048000B1FBF0F000F0DEFA48B9102C07D20022E0
:100490002146501E00F028F800206C6070BD01203D
:1004A00070BD0000000000200C0000200C4808B5C2
:1004B000816941F001018161816901F001010091CF
:1004C000C16941F08051C161C06900F08050009065
:1004D0000448416821F0E06141F00071416008BDCD
:1004E0000010024000000140F0B40E4B1B680C46A7
:1004F000C3F30223C3F10705042D00D90425191DF8
:10050000072901D2002300E0DB1E012606FA05F1CF
:10051000491E214099409E40761E16403143F0BC52
:1005200000F0B7BC0CED00E0064900F007020868D7
:100530004FF6FF03184040EA0220034A10430860C8
:10054000704700000CED00E00000FA052DE9F047CF
:100550000F46050061D0434E306800F00700B842F6
:1005600009D2306820F0070038433060306800F06E
:100570000700B84251D128683B4C810712D540078B
:1005800003D5606840F4E06060602878000703D518
:10059000606840F4605060606068A96820F0F00016
:1005A000084360602878C00728D06868012810D008
:1005B0002168022810D0890700292EDA616821F00D
:1005C000030101436160FFF731FF804641F2883942
:1005D0000DE021688903EFE78901EDE7FFF726FFCA
:1005E000A0EB0801494502D90320BDE8F087606807
:1005F000696800F00C00B0EB810FEFD1306800F0BB
:100600000700B8420BD9306820F00700384330604B
:10061000306800F00700B84201D00120E5E72878F3
:10062000400705D56068E96820F4E0600843606031
:100630002878000706D56068296920F4605040EAF0
:10064000C100606000F038F86168084AC1F3031126
:10065000515CC8400649086006480068FFF706FF7D
:100660000020C2E70020024000100240E420000801
:100670000C00002004000020044805490068496877
:10068000044AC1F30221515CC84070470C000020AD
:1006900000100240F4200008044805490068496839
:1006A000044AC1F3C221515CC84070470C000020CD
:1006B00000100240F420000812A185B00FC98DE897
:1006C0000F0014A0144A006804905168134801F008
:1006D0000C03042B10D0082B0ED1C1F38343C903A4
:1006E0001DF803000AD5516804AAC1F34041515CCA
:1006F0000A4A5043B0FBF1F005B07047084948433F
:10070000FAE7000002030405060708090A0B0C0DAE
:100710000E0F1010010200000010024000127A00BB
:1007200000093D002DE9F84F040070D02078C04D3D
:10073000C00749D06868C0F38100012807D0686805
:10074000C0F38100022809D16868C00306D5286873
:10075000800339D560680028E7D035E06068B0F5DF
:10076000803F0BD010B1B0F5A02F11D0286820F435
:1007700080302860286820F4802002E0286840F457
:1007800080302860606890B1FFF750FE06460AE0AE
:10079000286840F480202860F0E700BFFFF746FE9D
:1007A000801B642873D828688003F7D50CE0FFF716
:1007B0003DFE064605E000BFFFF738FE801B6428BB
:1007C000F0D828688003F7D420789A4E80074FF03D
:1007D00001094FF0000839D5686810F00C0F07D0F8
:1007E0006868C0F38100022809D16868C00306D494
:1007F0002868800714D52069012808D110E02069F5
:10080000B0B1C6F80090FFF711FE074605E00AE117
:10081000FFF70CFEC01B0228C4D828688007F7D554
:100820002868616920F0F80040EAC10028600DE006
:10083000C6F80080FFF7FAFD074604E0FFF7F6FD73
:10084000C01B022823D828688007F7D42078000727
:100850002CD57948A169D9B1C0F80090FFF7E6FD21
:10086000074604E0FFF7E2FDC01B02280FD8686AC4
:100870008007F7D571484FF4FA510068B0FBF1F0EA
:10088000009000BF0098411E0091FAD20EE080E077
:10089000C0F80080FFF7CAFD074604E0FFF7C6FD79
:1008A000C01B022875D8686A8007F7D420784007F3
:1008B00060D5E8690027C00008D4E86940F080509E
:1008C000E861E869012700F0805000905C48016809
:1008D000C90513D40168834641F480710160FFF7B4
:1008E000A5FD824606E000BFFFF7A0FDA0EB0A00D1
:1008F00064284ED8DBF80000C005F5D5E068012873
:100900000AD008B1052813D0286A20F00100286217
:10091000286A20F0040002E0286A40F00100286202
:10092000E06841F2883B98B1FFF780FD82460BE01A
:10093000286A40F004002862EEE700BFFFF776FD6A
:10094000A0EB0A0159455AD8286A8007F6D50CE071
:10095000FFF76CFD824605E0FFF768FDA0EB0A019A
:1009600059454CD8286A8007F6D41FB1E86920F0B1
:100970008050E861E06988B36968C1F381010229A8
:1009800044D00228C6F8608004D0FFF74FFD04462B
:1009900038E034E0FFF74AFD074604E0FFF746FD84
:1009A000C01B02282BD828688001F7D4206AB0F534
:1009B000803F05D16868A16820F400300843686072
:1009C000D4E908010843696821F474110843686098
:1009D000C6F86090FFF72AFD044606E025E000BF58
:1009E000FFF724FD001B022809D828688001F7D5ED
:1009F0001BE000BFFFF71AFD001B022802D90320ED
:100A0000BDE8F88F28688001F4D40EE00128F7D003
:100A10006868226A00F48031914204D1616A00F46E
:100A20007010884201D00120EAE70020E8E70000CA
:100A30000010024000004242800442420C000020AC
:100A40000070004010B5401EB0F1807F01D301203E
:100A500010BD4FF0E02460610F21601700F019FA1B
:100A60000020A06107202061002010BD70B50400A7
:100A700004D094F83900002510B106E0012070BDC3
:100A800084F83850204600F023F8242084F83900F8
:100A90002068C16821F40051C160204600F06AF965
:100AA0002068016921F4904101612068416921F0C9
:100AB0002A0141612068C16841F40051C160E563C9
:100AC000202084F8390084F83A00002070BD00002E
:100AD00030B585B00024009401940294039400681A
:100AE0001449884224D11448816941F480418161CC
:100AF000816901F480410491816941F004018161BF
:100B000080690E4D00F0040004904FF400700090D6
:100B1000022001900320039069462846FFF788FBD6
:100B20002815CDE90004694628460294FFF780FBAA
:100B300005B030BD003801400010024000080140FF
:100B40002DE9F843044690F839001F4616460D4635
:100B500020284CD1C5B1BEB194F83800012846D048
:100B6000012084F838004FF00008C4F83C802120B0
:100B700084F83900FFF75AFCA6848146E684A06811
:100B8000B0F5805F03D004E00120BDE8F883206960
:100B900028B12E465FF0000584F838800EE000266C
:100BA000FAE78021204600F041F9A0B9AEB116F86D
:100BB000010B21684860E08C401EE084E08C4B46CD
:100BC0004FF0000200970028EBD14FF04001204683
:100BD00000F02CF930B10320D7E735F8020BC0F351
:100BE0000800E6E7202084F839000020CDE7022045
:100BF000CBE7FEE72DE9F04186B0002000900190A0
:100C0000029003902D48816941F010018161816952
:100C100001F010010491816941F020018161816935
:100C200001F020010491816941F004018161816931
:100C300001F004010491816941F00801816180693A
:100C4000012200F008001E4E17020490394630467B
:100C5000FFF7E6FBDFF86C80012204214046FFF736
:100C6000DFFB4FF6FF750324CDE9005469461648B3
:100C7000FFF7DEFA49F6FF00CDE900046946304689
:100C8000FFF7D6FACDE9005469461048FFF7D0FACD
:100C90000125CDE90075CDE9025469463046FFF7DC
:100CA000C7FA0420CDE90005CDE902546946404663
:100CB000FFF7BEFA06B0BDE8F08100000010024068
:100CC000000801400014014000100140000C0140E8
:100CD0000C4810B50A4901604FF4E1314160002130
:100CE00081600C22C160C0E904128161C161FFF71B
:100CF000BDFE002803D0BDE81040FFF797BA10BD35
:100D00000038014084000020FEE77047FFF71ABA60
:100D1000FFF7F6B910B5FFF78FFBBDE8104000F004
:100D200089BE30B58FB028216846FFF760FA1421DC
:100D30000AA8FFF75CFA01210804CDE9001000249D
:100D4000029402250491CDE907504FF4E010099078
:100D50006846FFF7E7FC0F20CDE90A056802CDE9F8
:100D60000C4002210AA80E94FFF7F0FB0FB030BD33
:100D70007047000070B5044600680169E26821F41C
:100D80004051114301612169A0680843616908432A
:100D90002168CA6841F20C639A430243CA60206822
:100DA0004169A26921F44071114341611E492068E3
:100DB000884202D1FFF770FC01E0FFF75DFC00EB19
:100DC000C00101EB0012606864218000B2FBF0F307
:100DD000B3FBF1F36FF018067343B2FBF0F5B2FB0F
:100DE000F0F605EB8305322303EB0515B5FBF1F5B2
:100DF000B6FBF1F605F0F00505EB0615B2FBF0F6D3
:100E0000B2FBF0F0B0FBF1F06FF01802504306EBCC
:100E1000800003EB0010B0FBF1F0216800F00F0040
:100E20002844886070BD0000003801402DE9F04181
:100E3000984617460E460446069D1DE0681C1BD0CA
:100E40002DB1FFF7F3FAA0EB0800A84214D92068EF
:100E5000C16821F4D071C1602068416921F00101AD
:100E60004161202084F8390084F83A00002084F899
:100E700038000320BDE8F0812068006836EA0000F1
:100E800004D00020B842D9D00020F3E70120F9E7D0
:100E9000FEE70907090E002804DB00F1E02080F8D6
:100EA0000014704700F00F0000F1E02080F8141DDE
:100EB000704702E008C8121F08C1002AFAD1704723
:100EC0007047002001E001C1121F002AFBD17047CA
:100ED000064D4FF480744FF4FA7621462846FFF70A
:100EE00097FA304600F0ECFCF7E7000000080140FC
:100EF000054C4FF4967504212046FFF789FA2846E1
:100F000000F0DEFCF7E70000001401401CB5FFF71D
:100F10009BFAFFF706FFFFF76DFEFFF7D9FE0024EF
:100F20000320CDE90004234640220CA10E4800F026
:100F30003DFF0420CDE90004002340220BA10E4810
:100F400000F034FF0520CDE90004002380220BA12E
:100F50000D4800F02BFF00F0FDFCFEE76C656431EE
:100F60005F7461736B000000D10E00086C65643221
:100F70005F7461736B000000F10E00087072696E9F
:100F8000745F7461736B00008D0F00084FF47A7406
:100F900064230C2203A10748FFF7D2FD204600F08E
:100FA0008FFCF5E748656C6C6F576F726C640D0AC7
:100FB00000000000840000202DE9F041184C0F468D
:100FC0000546E6682068001D00F0B8FB38B92068C7
:100FD00090F82C1001208840216981432161681C10
:100FE00007D137B12168BDE8F0410E48091D00F076
:100FF000DEBB20683544B5424560216805D2A06B50
:10100000BDE8F041091D00F0BABB606B091D00F09E
:10101000B6FBA06A854200D2A562BDE8F08100005F
:10102000100000202C0200202DE9F041054600F0C0
:10103000CBFB2D4CA068401CA06020682B4F10B14A
:10104000606938B32CE02560A068012828D100260B
:1010500006EB860007EB800000F083FB761C0A2E6F
:10106000F6D32248C83000F07CFB2048DC3000F08A
:1010700078FB1E48F03000F074FB1D4800F071FB57
:101080001B48143000F06DFB19483C386063143085
:10109000A06305E02068E96AC06A884200D825603C
:1010A000606A401C6062E96A01202269884010433E
:1010B000206101EB810007EB8000291D00F077FB28
:1010C00000F090FB606900280CD02068E96AC06AD3
:1010D000884207D207494FF080500860BFF34F8F16
:1010E000BFF36F8FBDE8F0811000002014010020D5
:1010F0001802002004ED00E010B500F065FB0E4C76
:101100002068A0B90D4800F02CFB0C48143000F00A
:1011100028FB0A48E0601430206100220C210A20DC
:1011200000F09EFC206010B105A100F093FBBDE82B
:10113000104000F057BB00004C000020400200208F
:10114000546D72510000000030B4026C0B46002A4E
:101150000BD0C1681144C1608468A14201D3016809
:10116000C16030BC1846FFF729B830BC70472DE984
:10117000F041856B174604460026026C82B1C7B168
:10118000E068FFF71BF8E168206C091AE16022684B
:10119000914202D2A168081AE060022F16D017E02F
:1011A0002068A8B9A06800F09BFE06460020A06059
:1011B0000EE06068FFF702F8216C60680844606028
:1011C000A168884204D32068606001E005B16D1E0B
:1011D0006D1CA5633046BDE8F08110B50446006B78
:1011E00000F00AFB2046BDE8104000F005BB0000FF
:1011F00010484FF40051420706D0C01D0D4920F0A1
:101200000700411AC1F500510B4A00230144C2E90D
:1012100000030839183A21F0070111604B600B6098
:101220000B1AC0E9001393604FF000405360506107
:10123000704700006802002078000020144E154C12
:10124000A6F582774FF08058DFF84C9012E000BF8F
:1012500000F0BAFAF068C568281D00F06FFAA068BF
:10126000401EA0606068401E606000F0BBFA284627
:10127000FFF7B3FF60680028EAD138680128F9D980
:10128000C9F80080BFF34F8FBFF36F8FF2E7000004
:10129000180200201000002004ED00E02DE9F047C6
:1012A0009A46DDE9097481466FF00303206B03EB76
:1012B0008202089E104420F00708002561B100203A
:1012C00023180A5C83F834200A5C12B1401C1028F1
:1012D000F6D384F8435001E084F834500A2E00D34A
:1012E0000926E662C4E91165201D00F045FA04F103
:1012F000180000F041FA2461C6F10A006462A0619E
:10130000E56484F8505052464946404600F004FADD
:101310002060002F00D03C60BDE8F08730B5114957
:1013200000E011460A688242FBD34B685C18844295
:1013300003D1406818444860084643681C1894422A
:1013400009D1084C183C2468A24209D052681A44BA
:1013500042600A6812680260814200D0086030BDB5
:101360000460F9E77800002070B5002441600B4D5F
:101370000061914206D8D11A8269914206D2011DBC
:10138000286907E09A4203D2994201D3012403E07D
:10139000011DE86800F0F3F9204670BD4C00002004
:1013A00010B5044600F010FAA06B28B15FF00004FD
:1013B00000F018FA204610BD0124F9E730B587B0D7
:1013C000304D56E00498002853DB069C606910B14C
:1013D000201D00F0B3F903A800F0BCF80246049801
:1013E0000A2846D2DFE800F0050505252B3905055A
:1013F000252B94F8240040F0010084F8240005997E
:10140000A069059B01442046FFF7AEFF20B3216A87
:101410002046884794F8240040072AD500200090F1
:101420000598A169002342181946204600F036FEAF
:101430001FE014F8240F20F00100207019E094F848
:101440002400134640F0010084F824000598A061B0
:1014500081182046FFF788FF0BE094F824008107ED
:1014600003D4204600F0C8F903E020F0010084F81E
:101470002400002204A9286800F0F4FB0028A1D170
:1014800007B030BD4C0000202DE9FC410F46054659
:1014900000F08EFA01A800F05DF80446019818B13A
:1014A00000F084FDBDE8FC81214EAFB130690068D9
:1014B00090B30027291B3A46306800F0DFF900F0AE
:1014C00075FD0028EED11B494FF080500860BFF336
:1014D0004F8FBFF36F8FE5E7A542EBD800F066FDB5
:1014E000F0682746C068C468201D00F027F994F80A
:1014F0002400410711D5A0692B4641193A462046E0
:10150000FFF732FF68B100200346014600902A46EB
:10151000204600F0C3FD04E007E020F0010084F85D
:101520002400216A20468847BCE70127C2E7000063
:101530004C00002004ED00E00548416B096821B132
:10154000416BC9680968816270474FF0FF31FAE763
:101550001000002070B5054600F062FC064E0446FF
:10156000B068844203D200F009F8012000E00020B6
:1015700028602046B46070BD4C000020F8B5154DC1
:101580001FE0C068C4680668201D00F0D7F8216A13
:101590002046884794F82400400712D5A0693044BB
:1015A000B04206D924616060211DE86800F0E7F8C8
:1015B00007E000200346014600903246204600F036
:1015C0006DFDE86801680029DBD12969C5E90310D0
:1015D000F8BD00004C000020102080F31188BFF3FC
:1015E0004F8FBFF36F8FFEE7074CE068016841B192
:1015F000C0680021D0F80000FFF746FFFFF7DEFECD
:10160000F3E701210020F7E74C0000202DE9F0412D
:10161000044600F0D9F894F9455004F1240609E095
:10162000606A48B1304600F08FFC08B100F068F9FC
:101630006D1E6DB2002DF3DC4FF0FF3684F845606F
:1016400000F0D0F800F0C0F894F9445004F110070D
:1016500009E0206948B1384600F076FC08B100F096
:101660004FF96D1E6DB2002DF3DC84F84460BDE8C7
:10167000F04100F0B7B800002DE9F0410546002721
:1016800000F096F9234E306808B9FFF7B1FD706994
:10169000054239D1C5B30835680704D005F0070005
:1016A000C0F1080005447DB3706885422CD8194804
:1016B000183001460C6801E020460C466168A942DA
:1016C00002D221680029F7D131688C421CD007680A
:1016D0002168016060680837411B102904D960192E
:1016E00041606560FFF71AFE61687068401A7060BB
:1016F000B268904200D2B060706901430020C4E932
:101700000001F068401CF06000F050FC3846BDE875
:10171000F08100006000002010B5031F4FF08074BE
:101720001C601B1F21F001011960191F024B0B6087
:10173000143940380A6010BDD9150008D0E90132CB
:1017400001699A60D0E901235A604A68824201D156
:1017500082684A60002202610868401E08600868CA
:10176000704700F108014FF0FF32C0E90112C1607B
:10177000016100210160704700210161704730B5AF
:101780000B685A1C02D000F1080202E0026904E072
:101790002246546825689D42FAD953684B60996087
:1017A0008A60516008610168491C016030BD42686F
:1017B0004A6093688B609368596091600861016822
:1017C000491C016070470000102080F31188BFF3AE
:1017D0004F8FBFF36F8F02480168491C016070474B
:1017E0008000002003490868401E086001D180F392
:1017F000118870478000002070B500281BD00E4D66
:10180000A0F1080461686869014214D02268002AC6
:1018100011D18143616000F0CBF8606869680844C9
:1018200068602046FFF77AFD2869401C2861BDE802
:10183000704000F0BBBB70BD600000204FF0E020A6
:101840000021016181610249416107210161704705
:101850003F19010010B5084B002200BF53F8324079
:101860001CB1521C0A2AF9D310BD43F8321003EB05
:10187000C201486010BD0000C400002070B51546CC
:101880000E460446FFF7A0FF94F944100020491CBF
:1018900001D184F8440094F94510491C01D184F821
:1018A0004500FFF79FFFA06B28B92A46314604F197
:1018B000240000F03BF82046BDE87040FFF7A6BECC
:1018C00010B5020009D000F073F800211046FFF7B0
:1018D00073FB00F06BFB002807D104494FF08050E8
:1018E0000860BFF34F8FBFF36F8F10BD04ED00E0B2
:1018F00002490A6A0260C96841607047100000200E
:1019000001490120C86170471000002010B50C4645
:10191000054909681831FFF732FF2046BDE810403D
:101920000121FFF749BB00001000002070B50D46F3
:101930000749144609681831FFF739FF0CB14FF019
:10194000FF3521462846BDE87040FFF735BB000053
:10195000100000201CB512480024CDE900402346A9
:10196000402210A1114800F021FA012816D100F000
:1019700077FB012812D1102080F31188BFF34F8F1D
:10198000BFF36F8F06484FF0FF312C388162012181
:101990004161C460BDE81C4000F034B81CBD0000CB
:1019A0003C00002049444C45000000003D12000866
:1019B0000248016B491C01637047000010000020C1
:1019C0000E48016B11B10121C16170470021C16155
:1019D00001690B4AB1FA81F1C1F11F0101EB8101EB
:1019E00002EB810101F108034A6852684A609A4299
:1019F00001D152684A60D168016070471000002030
:101A000014010020094810B5016841F4700101601B
:101A1000016841F070410160FFF710FF04490020A8
:101A20000860FEF77FFB002010BD000020ED00E005
:101A30008000002010B5102080F31188BFF34F8F75
:101A4000BFF36F8F00F0F2F918B104494FF08050E6
:101A50000860002080F3118810BD000004ED00E054
:101A600070B50E46054670434830FFF705FE04008A
:101A700009D004F1480120463EB10160C0E90F568B
:101A8000012100F005F8204670BD0060F6E7000077
:101A900070B50D460446FFF797FED4E90F12206893
:101AA00001FB0200A0600020A06320686060014686
:101AB000E06B401E00FB0210E0604FF0FF3084F846
:101AC000440084F8450004F110004DB1FFF749FED1
:101AD00004F12400FFF745FEFFF784FE012070BDEE
:101AE00021690029F8D000F02FFA0028F4D0044929
:101AF0004FF080500860BFF34F8FBFF36F8FEBE75D
:101B000004ED00E02DE9FF4700273B4E82B09946E7
:101B10008A460446B8464FF0805500BFFFF754FE92
:101B2000A06BE16B884206D3B9F1020F03D0049891
:101B3000C0B1D7B11DE04A4651462046FFF717FB1A
:101B4000616A19B104F1240000F0FEF920B135609A
:101B5000BFF34F8FBFF36F8FFFF744FE012006B036
:101B6000BDE8F087FFF73EFE21E06846FFF7C0FEC4
:101B70000127FFF737FEFFF71BFFFFF725FE94F95C
:101B80004400401C01D184F8448094F94500401C75
:101B900001D184F84580FFF725FE04A9684600F0CE
:101BA000D9F830B12046FFF731FD00F0FFF90020F1
:101BB000D5E7FFF709FEA06BE16B884213D1FFF771
:101BC00011FE04F110000499FFF7A0FE2046FFF774
:101BD0001DFD00F0EBF90028A0D13560BFF34F8F59
:101BE000BFF36F8F9AE7FFF7FDFD2046FFF70EFD6D
:101BF00000F0DCF992E7000004ED00E02DE9F0418F
:101C0000044617461020EFF3118680F31188BFF3C6
:101C10004F8FBFF36F8FA26BE06B824206D3022B14
:101C200004D0002086F31188BDE8F08194F9455076
:101C3000A06B1A462046FFF79AFA681C04D06D1C68
:101C400084F845500120EDE7606A0028FAD004F1DD
:101C5000240000F079F90028F4D0002FF2D0012000
:101C60003860EFE72DE9F7470026DFF8E48083B01E
:101C70008A460446B1464FF0805700BFFFF7A4FDE7
:101C8000A56BC5B151462046FFF75EFA6D1EA563F0
:101C9000206950B104F1100000F056F928B1C8F8DD
:101CA0000070BFF34F8FBFF36F8FFFF79BFD0120D5
:101CB00006B0BDE8F087059808B11EB106E0FFF751
:101CC00091FD27E06846FFF713FE0126FFF78AFD26
:101CD000FFF76EFEFFF778FD94F94400401C01D138
:101CE00084F8449094F94500401C01D184F8459053
:101CF000FFF778FD05A9684600F02CF8002820467B
:101D00000AD0FFF783FC00F051F92046FFF748FBAB
:101D10000028B3D00020CBE7FFF742FB90B104F1DD
:101D200024000599FFF7F2FD2046FFF76FFC00F055
:101D30003DF90028A2D1C8F80070BFF34F8FBFF360
:101D40006F8F9BE72046FFF761FC00F02FF995E7C6
:101D500004ED00E02DE9F0410C460546FFF734FDA7
:101D6000114EF2686B682168D01A4F1C0AD02F6898
:101D7000D6F820C00026674506D0934204D8012536
:101D800026600BE0002509E0814205D9081A206091
:101D90002846FFF7ADFDF5E701252660FFF722FD98
:101DA0002846BDE8F0810000100000202DE9FF5F0B
:101DB0008346DDE90E87994616468A469000FFF76E
:101DC0005BFC05001AD05420FFF756FC040012D02B
:101DD00025630021CDE90241CDE900874B4632461B
:101DE00051465846FFF75AFA2046FFF71DF90120E1
:101DF00004B0BDE8F09F2846FFF7FEFC4FF0FF302F
:101E0000F6E700000548416919B1006B18B10020E0
:101E1000704701207047022070470000100000202A
:101E20000148C06870470000100000202DE9F04113
:101E3000294C0027206B28B1A069401CA0613846BE
:101E4000BDE8F081E668761CE66008D1606BA16BA6
:101E50006163A063206A401C2062FFF76DFBA06AEB
:101E6000DFF87880864209D3606B0068A0B1606BB0
:101E7000C068C5686868864211D2A0622068C06ADE
:101E800000EB800158F82100012800D90127E06902
:101E90000028D4D00127D2E74FF0FF30EDE7281D0E
:101EA000FFF74CFCA86A18B105F11800FFF746FCD3
:101EB000E86A0121226981401143216100EB800120
:101EC00008EB8100291DFFF772FCE86A2168C96AE6
:101ED0008842C9D30127C7E7100000201401002061
:101EE00010B504004FF0000028D0A16C491EA16479
:101EF000636CE26A9A4221D000291FD1201DFFF7AE
:101F00001DFC0F4A012130B994F82C00136901FA25
:101F100000F083431361606CE062C0F10A00A061CD
:101F2000E06A1369814019431161064900EB8000A2
:101F300001EB8000211DFFF73AFC012010BD0000DD
:101F400010000020140100202DE9F041C068C46891
:101F500004F118000746FFF7F1FB124D286B01262C
:101F600068B11148394600BFFFF721FCE06A2968D3
:101F7000C96A884214D90120EE61BDE8F081201DB4
:101F8000FFF7DCFBE16A2A6906FA01F010432861D9
:101F900001EB81000449F03901EB8000211DE3E7EA
:101FA0000020EAE710000020040200202DE9F0479D
:101FB00000242646FFF708FC264D286B401E2863A8
:101FC000286BE0BBA968244F0120C1B3A7F1F00939
:101FD00080463868E8B1F868C46804F11800FFF773
:101FE000ADFB201DFFF7AAFBE06A2A6908FA00F1A1
:101FF0001143296100EB800109EB8100211DFFF7EE
:10200000D6FBE06A2968C96A8842E2D3C5F81C8019
:10201000DFE70CB1FFF790FAAC694CB14FEA080763
:10202000FFF704FF00B1EF61641EF9D10020A86141
:10203000E86920B1094901263007086000E003E0A3
:10204000BFF34F8FBFF36F8FFFF7CCFB3046BDE878
:10205000F0870000100000200402002004ED00E0E2
:102060001CB50024FFF748F80848006858B1074934
:102070000320091DCDE900010023402204A10648E8
:10208000FFF794FE044620461CBD00004C000020D3
:10209000546D722053766300E9150008FEB5104CAC
:1020A0001F46034626680020089D002E0ED08DE8AE
:1020B0000E0006290DDAFFF7A5FE02284FF00003F7
:1020C00005D0002269462068FFF71CFDFEBD2A46A8
:1020D000F8E700233A4669463046FFF78FFDFEBD1C
:1020E0004C0000200000000000000000010203047A
:1020F0000607080900000000010203041C21000873
:102100000000002084000000B20E0008A02100089A
:1021100084000020E4310000C20E0008010000002D
:1021200010000000000000000024F4000000000087
:10213000000000000000000000000000000000009F
:10214000000000000000000000000000000000008F
:10215000000000000000000000000000000000007F
:10216000000000000000000000000000000000006F
:10217000000000000000000000000000000000005F
:10218000000000000000000000000000000000004F
:10219000000000000000000000000000AAAAAAAA97
:04000005080000ED02
:00000001FF
